{
  "contractName": "RegistryEntities",
  "abi": [
    {
      "constant": true,
      "inputs": [
        {
          "name": "",
          "type": "uint256"
        }
      ],
      "name": "_registryEntity",
      "outputs": [
        {
          "name": "id",
          "type": "uint256"
        },
        {
          "name": "title",
          "type": "string"
        },
        {
          "name": "description",
          "type": "string"
        },
        {
          "name": "documents_url",
          "type": "string"
        },
        {
          "name": "image_url",
          "type": "string"
        },
        {
          "name": "created_at",
          "type": "uint256"
        },
        {
          "name": "updated_at",
          "type": "uint256"
        }
      ],
      "payable": false,
      "stateMutability": "view",
      "type": "function"
    },
    {
      "constant": false,
      "inputs": [
        {
          "name": "title",
          "type": "string"
        },
        {
          "name": "description",
          "type": "string"
        },
        {
          "name": "documents_url",
          "type": "string"
        },
        {
          "name": "image_url",
          "type": "string"
        },
        {
          "name": "points",
          "type": "int32[]"
        }
      ],
      "name": "create",
      "outputs": [],
      "payable": false,
      "stateMutability": "nonpayable",
      "type": "function"
    },
    {
      "constant": true,
      "inputs": [
        {
          "name": "id",
          "type": "uint256"
        }
      ],
      "name": "find",
      "outputs": [
        {
          "name": "",
          "type": "uint256"
        },
        {
          "name": "",
          "type": "string"
        },
        {
          "name": "",
          "type": "string"
        },
        {
          "name": "",
          "type": "string"
        },
        {
          "name": "",
          "type": "string"
        },
        {
          "name": "",
          "type": "int32[]"
        },
        {
          "name": "",
          "type": "uint256"
        },
        {
          "name": "",
          "type": "uint256"
        }
      ],
      "payable": false,
      "stateMutability": "view",
      "type": "function"
    }
  ],
  "bytecode": "0x60806040526000805534801561001457600080fd5b5061111e806100246000396000f3fe608060405234801561001057600080fd5b50600436106100415760003560e01c80633e530e5b1461004657806364049caf1461028e578063ea6a8b101461048e575b600080fd5b6100726004803603602081101561005c57600080fd5b81019080803590602001909291905050506107a2565b60405180898152602001806020018060200180602001806020018060200188815260200187815260200186810386528d818151815260200191508051906020019080838360005b838110156100d45780820151818401526020810190506100b9565b50505050905090810190601f1680156101015780820380516001836020036101000a031916815260200191505b5086810385528c818151815260200191508051906020019080838360005b8381101561013a57808201518184015260208101905061011f565b50505050905090810190601f1680156101675780820380516001836020036101000a031916815260200191505b5086810384528b818151815260200191508051906020019080838360005b838110156101a0578082015181840152602081019050610185565b50505050905090810190601f1680156101cd5780820380516001836020036101000a031916815260200191505b5086810383528a818151815260200191508051906020019080838360005b838110156102065780820151818401526020810190506101eb565b50505050905090810190601f1680156102335780820380516001836020036101000a031916815260200191505b50868103825289818151815260200191508051906020019060200280838360005b8381101561026f578082015181840152602081019050610254565b505050509050019d505050505050505050505050505060405180910390f35b6102ba600480360360208110156102a457600080fd5b8101908080359060200190929190505050610b4f565b604051808881526020018060200180602001806020018060200187815260200186815260200185810385528b818151815260200191508051906020019080838360005b838110156103185780820151818401526020810190506102fd565b50505050905090810190601f1680156103455780820380516001836020036101000a031916815260200191505b5085810384528a818151815260200191508051906020019080838360005b8381101561037e578082015181840152602081019050610363565b50505050905090810190601f1680156103ab5780820380516001836020036101000a031916815260200191505b50858103835289818151815260200191508051906020019080838360005b838110156103e45780820151818401526020810190506103c9565b50505050905090810190601f1680156104115780820380516001836020036101000a031916815260200191505b50858103825288818151815260200191508051906020019080838360005b8381101561044a57808201518184015260208101905061042f565b50505050905090810190601f1680156104775780820380516001836020036101000a031916815260200191505b509b50505050505050505050505060405180910390f35b6107a0600480360360a08110156104a457600080fd5b81019080803590602001906401000000008111156104c157600080fd5b8201836020820111156104d357600080fd5b803590602001918460018302840111640100000000831117156104f557600080fd5b91908080601f016020809104026020016040519081016040528093929190818152602001838380828437600081840152601f19601f8201169050808301925050505050505091929192908035906020019064010000000081111561055857600080fd5b82018360208201111561056a57600080fd5b8035906020019184600183028401116401000000008311171561058c57600080fd5b91908080601f016020809104026020016040519081016040528093929190818152602001838380828437600081840152601f19601f820116905080830192505050505050509192919290803590602001906401000000008111156105ef57600080fd5b82018360208201111561060157600080fd5b8035906020019184600183028401116401000000008311171561062357600080fd5b91908080601f016020809104026020016040519081016040528093929190818152602001838380828437600081840152601f19601f8201169050808301925050505050505091929192908035906020019064010000000081111561068657600080fd5b82018360208201111561069857600080fd5b803590602001918460018302840111640100000000831117156106ba57600080fd5b91908080601f016020809104026020016040519081016040528093929190818152602001838380828437600081840152601f19601f8201169050808301925050505050505091929192908035906020019064010000000081111561071d57600080fd5b82018360208201111561072f57600080fd5b8035906020019184602083028401116401000000008311171561075157600080fd5b919080806020026020016040519081016040528093929190818152602001838360200280828437600081840152601f19601f820116905080830192505050505050509192919290505050610df1565b005b600060608060608060606000806107b7610f22565b600160008b81526020019081526020016000206040518061010001604052908160008201548152602001600182018054600181600116156101000203166002900480601f0160208091040260200160405190810160405280929190818152602001828054600181600116156101000203166002900480156108795780601f1061084e57610100808354040283529160200191610879565b820191906000526020600020905b81548152906001019060200180831161085c57829003601f168201915b50505050508152602001600282018054600181600116156101000203166002900480601f01602080910402602001604051908101604052809291908181526020018280546001816001161561010002031660029004801561091b5780601f106108f05761010080835404028352916020019161091b565b820191906000526020600020905b8154815290600101906020018083116108fe57829003601f168201915b50505050508152602001600382018054600181600116156101000203166002900480601f0160208091040260200160405190810160405280929190818152602001828054600181600116156101000203166002900480156109bd5780601f10610992576101008083540402835291602001916109bd565b820191906000526020600020905b8154815290600101906020018083116109a057829003601f168201915b50505050508152602001600482018054600181600116156101000203166002900480601f016020809104026020016040519081016040528092919081815260200182805460018160011615610100020316600290048015610a5f5780601f10610a3457610100808354040283529160200191610a5f565b820191906000526020600020905b815481529060010190602001808311610a4257829003601f168201915b5050505050815260200160058201805480602002602001604051908101604052809291908181526020018280548015610add57602002820191906000526020600020906000905b82829054906101000a900460030b60030b81526020019060040190602082600301049283019260010382029150808411610aa65790505b50505050508152602001600682015481526020016007820154815250509050806000015181602001518260400151836060015184608001518560a001518660c001518760e001518696508595508494508393508292509850985098509850985098509850985050919395975091939597565b6001602052806000526040600020600091509050806000015490806001018054600181600116156101000203166002900480601f016020809104026020016040519081016040528092919081815260200182805460018160011615610100020316600290048015610c015780601f10610bd657610100808354040283529160200191610c01565b820191906000526020600020905b815481529060010190602001808311610be457829003601f168201915b505050505090806002018054600181600116156101000203166002900480601f016020809104026020016040519081016040528092919081815260200182805460018160011615610100020316600290048015610c9f5780601f10610c7457610100808354040283529160200191610c9f565b820191906000526020600020905b815481529060010190602001808311610c8257829003601f168201915b505050505090806003018054600181600116156101000203166002900480601f016020809104026020016040519081016040528092919081815260200182805460018160011615610100020316600290048015610d3d5780601f10610d1257610100808354040283529160200191610d3d565b820191906000526020600020905b815481529060010190602001808311610d2057829003601f168201915b505050505090806004018054600181600116156101000203166002900480601f016020809104026020016040519081016040528092919081815260200182805460018160011615610100020316600290048015610ddb5780601f10610db057610100808354040283529160200191610ddb565b820191906000526020600020905b815481529060010190602001808311610dbe57829003601f168201915b5050505050908060060154908060070154905087565b6001600080828254019250508190555060004290506000819050610e13610f22565b6040518061010001604052806000548152602001898152602001888152602001878152602001868152602001858152602001848152602001838152509050806001600080548152602001908152602001600020600082015181600001556020820151816001019080519060200190610e8c929190610f67565b506040820151816002019080519060200190610ea9929190610f67565b506060820151816003019080519060200190610ec6929190610f67565b506080820151816004019080519060200190610ee3929190610f67565b5060a0820151816005019080519060200190610f00929190610fe7565b5060c0820151816006015560e082015181600701559050505050505050505050565b60405180610100016040528060008152602001606081526020016060815260200160608152602001606081526020016060815260200160008152602001600081525090565b828054600181600116156101000203166002900490600052602060002090601f016020900481019282601f10610fa857805160ff1916838001178555610fd6565b82800160010185558215610fd6579182015b82811115610fd5578251825591602001919060010190610fba565b5b509050610fe3919061109a565b5090565b828054828255906000526020600020906007016008900481019282156110895791602002820160005b8382111561105757835183826101000a81548163ffffffff021916908360030b63ffffffff1602179055509260200192600401602081600301049283019260010302611010565b80156110875782816101000a81549063ffffffff0219169055600401602081600301049283019260010302611057565b505b50905061109691906110bf565b5090565b6110bc91905b808211156110b85760008160009055506001016110a0565b5090565b90565b6110ef91905b808211156110eb57600081816101000a81549063ffffffff0219169055506001016110c5565b5090565b9056fea165627a7a723058208a7420d88fd1abb14e267d81b05e0c13638917d4ded8b7132afc03e019f13d1d0029",
  "source": "pragma solidity >=0.4.0 <0.7.0;\n\n// Contract for managing land entries.\ncontract RegistryEntities {\n\n    // Struct for storing data of land entry.\n    struct RegistryEntity {\n        uint id;\n        string title;\n        string description;\n        string documents_url;\n        string image_url;\n        int32[] points;\n        uint created_at;\n        uint updated_at;\n    }\n\n    // Autoincrementer:\n    uint current_id = 0;\n\n    // Map for storing land entries (id => land entry data).\n    mapping(uint => RegistryEntity) public _registryEntity;\n\n    // Function for creating and saving land entry to land entries map.\n    function create(string memory title,\n                    string memory description,\n                    string memory documents_url,\n                    string memory image_url,\n                    int32[] memory points\n    ) public {\n        current_id += 1;\n\n        uint created_at = block.timestamp;\n        uint updated_at = created_at;\n\n        RegistryEntity memory registryEntity = RegistryEntity({\n            id: current_id,\n            title: title,\n            description: description,\n            documents_url: documents_url,\n            image_url: image_url,\n            points: points,\n            created_at: created_at,\n            updated_at: updated_at\n        });\n\n        _registryEntity[current_id] = registryEntity;\n    }\n\n    // Function for getting land entry data by land entry id.\n    function find(uint id) public view returns (\n        uint,\n        string memory,\n        string memory,\n        string memory,\n        string memory,\n        int32[] memory,\n        uint,\n        uint\n    ) {\n        RegistryEntity memory registryEntity = _registryEntity[id];\n\n        return (\n            registryEntity.id,\n            registryEntity.title,\n            registryEntity.description,\n            registryEntity.documents_url,\n            registryEntity.image_url,\n            registryEntity.points,\n            registryEntity.created_at,\n            registryEntity.updated_at\n        );\n    }\n\n}",
  "sourcePath": "/Users/sborod/projects/exyte/tellus/tellus_eth/contracts/RegistryEntities.sol",
  "compiler": {
    "name": "solc",
    "version": "0.5.8+commit.23d335f2.Emscripten.clang"
  },
  "schemaVersion": "3.0.10",
  "updatedAt": "2019-06-04T11:09:00.027Z",
  "devdoc": {
    "methods": {}
  },
  "userdoc": {
    "methods": {}
  }
}