{
  "contractName": "RegistryEntities",
  "abi": [
    {
      "constant": true,
      "inputs": [
        {
          "name": "",
          "type": "uint256"
        }
      ],
      "name": "_registryEntity",
      "outputs": [
        {
          "name": "id",
          "type": "uint256"
        },
        {
          "name": "title",
          "type": "string"
        },
        {
          "name": "description",
          "type": "string"
        },
        {
          "name": "documents_url",
          "type": "string"
        },
        {
          "name": "image_url",
          "type": "string"
        },
        {
          "name": "created_at",
          "type": "uint256"
        },
        {
          "name": "updated_at",
          "type": "uint256"
        }
      ],
      "payable": false,
      "stateMutability": "view",
      "type": "function"
    },
    {
      "constant": false,
      "inputs": [
        {
          "name": "title",
          "type": "string"
        },
        {
          "name": "description",
          "type": "string"
        },
        {
          "name": "documents_url",
          "type": "string"
        },
        {
          "name": "image_url",
          "type": "string"
        },
        {
          "name": "points",
          "type": "int32[]"
        }
      ],
      "name": "create",
      "outputs": [],
      "payable": false,
      "stateMutability": "nonpayable",
      "type": "function"
    },
    {
      "constant": true,
      "inputs": [
        {
          "name": "id",
          "type": "uint256"
        }
      ],
      "name": "find",
      "outputs": [
        {
          "name": "",
          "type": "uint256"
        },
        {
          "name": "",
          "type": "string"
        },
        {
          "name": "",
          "type": "string"
        },
        {
          "name": "",
          "type": "string"
        },
        {
          "name": "",
          "type": "string"
        },
        {
          "name": "",
          "type": "int32[]"
        },
        {
          "name": "",
          "type": "uint256"
        },
        {
          "name": "",
          "type": "uint256"
        }
      ],
      "payable": false,
      "stateMutability": "view",
      "type": "function"
    },
    {
      "constant": true,
      "inputs": [],
      "name": "get_current_id",
      "outputs": [
        {
          "name": "",
          "type": "uint256"
        }
      ],
      "payable": false,
      "stateMutability": "view",
      "type": "function"
    }
  ],
  "bytecode": "0x60806040526000805534801561001457600080fd5b50611150806100246000396000f3fe608060405234801561001057600080fd5b506004361061004c5760003560e01c80633e530e5b1461005157806364049caf146102995780636b33b73814610499578063ea6a8b10146104b7575b600080fd5b61007d6004803603602081101561006757600080fd5b81019080803590602001909291905050506107cb565b60405180898152602001806020018060200180602001806020018060200188815260200187815260200186810386528d818151815260200191508051906020019080838360005b838110156100df5780820151818401526020810190506100c4565b50505050905090810190601f16801561010c5780820380516001836020036101000a031916815260200191505b5086810385528c818151815260200191508051906020019080838360005b8381101561014557808201518184015260208101905061012a565b50505050905090810190601f1680156101725780820380516001836020036101000a031916815260200191505b5086810384528b818151815260200191508051906020019080838360005b838110156101ab578082015181840152602081019050610190565b50505050905090810190601f1680156101d85780820380516001836020036101000a031916815260200191505b5086810383528a818151815260200191508051906020019080838360005b838110156102115780820151818401526020810190506101f6565b50505050905090810190601f16801561023e5780820380516001836020036101000a031916815260200191505b50868103825289818151815260200191508051906020019060200280838360005b8381101561027a57808201518184015260208101905061025f565b505050509050019d505050505050505050505050505060405180910390f35b6102c5600480360360208110156102af57600080fd5b8101908080359060200190929190505050610b78565b604051808881526020018060200180602001806020018060200187815260200186815260200185810385528b818151815260200191508051906020019080838360005b83811015610323578082015181840152602081019050610308565b50505050905090810190601f1680156103505780820380516001836020036101000a031916815260200191505b5085810384528a818151815260200191508051906020019080838360005b8381101561038957808201518184015260208101905061036e565b50505050905090810190601f1680156103b65780820380516001836020036101000a031916815260200191505b50858103835289818151815260200191508051906020019080838360005b838110156103ef5780820151818401526020810190506103d4565b50505050905090810190601f16801561041c5780820380516001836020036101000a031916815260200191505b50858103825288818151815260200191508051906020019080838360005b8381101561045557808201518184015260208101905061043a565b50505050905090810190601f1680156104825780820380516001836020036101000a031916815260200191505b509b50505050505050505050505060405180910390f35b6104a1610e1a565b6040518082815260200191505060405180910390f35b6107c9600480360360a08110156104cd57600080fd5b81019080803590602001906401000000008111156104ea57600080fd5b8201836020820111156104fc57600080fd5b8035906020019184600183028401116401000000008311171561051e57600080fd5b91908080601f016020809104026020016040519081016040528093929190818152602001838380828437600081840152601f19601f8201169050808301925050505050505091929192908035906020019064010000000081111561058157600080fd5b82018360208201111561059357600080fd5b803590602001918460018302840111640100000000831117156105b557600080fd5b91908080601f016020809104026020016040519081016040528093929190818152602001838380828437600081840152601f19601f8201169050808301925050505050505091929192908035906020019064010000000081111561061857600080fd5b82018360208201111561062a57600080fd5b8035906020019184600183028401116401000000008311171561064c57600080fd5b91908080601f016020809104026020016040519081016040528093929190818152602001838380828437600081840152601f19601f820116905080830192505050505050509192919290803590602001906401000000008111156106af57600080fd5b8201836020820111156106c157600080fd5b803590602001918460018302840111640100000000831117156106e357600080fd5b91908080601f016020809104026020016040519081016040528093929190818152602001838380828437600081840152601f19601f8201169050808301925050505050505091929192908035906020019064010000000081111561074657600080fd5b82018360208201111561075857600080fd5b8035906020019184602083028401116401000000008311171561077a57600080fd5b919080806020026020016040519081016040528093929190818152602001838360200280828437600081840152601f19601f820116905080830192505050505050509192919290505050610e23565b005b600060608060608060606000806107e0610f54565b600160008b81526020019081526020016000206040518061010001604052908160008201548152602001600182018054600181600116156101000203166002900480601f0160208091040260200160405190810160405280929190818152602001828054600181600116156101000203166002900480156108a25780601f10610877576101008083540402835291602001916108a2565b820191906000526020600020905b81548152906001019060200180831161088557829003601f168201915b50505050508152602001600282018054600181600116156101000203166002900480601f0160208091040260200160405190810160405280929190818152602001828054600181600116156101000203166002900480156109445780601f1061091957610100808354040283529160200191610944565b820191906000526020600020905b81548152906001019060200180831161092757829003601f168201915b50505050508152602001600382018054600181600116156101000203166002900480601f0160208091040260200160405190810160405280929190818152602001828054600181600116156101000203166002900480156109e65780601f106109bb576101008083540402835291602001916109e6565b820191906000526020600020905b8154815290600101906020018083116109c957829003601f168201915b50505050508152602001600482018054600181600116156101000203166002900480601f016020809104026020016040519081016040528092919081815260200182805460018160011615610100020316600290048015610a885780601f10610a5d57610100808354040283529160200191610a88565b820191906000526020600020905b815481529060010190602001808311610a6b57829003601f168201915b5050505050815260200160058201805480602002602001604051908101604052809291908181526020018280548015610b0657602002820191906000526020600020906000905b82829054906101000a900460030b60030b81526020019060040190602082600301049283019260010382029150808411610acf5790505b50505050508152602001600682015481526020016007820154815250509050806000015181602001518260400151836060015184608001518560a001518660c001518760e001518696508595508494508393508292509850985098509850985098509850985050919395975091939597565b6001602052806000526040600020600091509050806000015490806001018054600181600116156101000203166002900480601f016020809104026020016040519081016040528092919081815260200182805460018160011615610100020316600290048015610c2a5780601f10610bff57610100808354040283529160200191610c2a565b820191906000526020600020905b815481529060010190602001808311610c0d57829003601f168201915b505050505090806002018054600181600116156101000203166002900480601f016020809104026020016040519081016040528092919081815260200182805460018160011615610100020316600290048015610cc85780601f10610c9d57610100808354040283529160200191610cc8565b820191906000526020600020905b815481529060010190602001808311610cab57829003601f168201915b505050505090806003018054600181600116156101000203166002900480601f016020809104026020016040519081016040528092919081815260200182805460018160011615610100020316600290048015610d665780601f10610d3b57610100808354040283529160200191610d66565b820191906000526020600020905b815481529060010190602001808311610d4957829003601f168201915b505050505090806004018054600181600116156101000203166002900480601f016020809104026020016040519081016040528092919081815260200182805460018160011615610100020316600290048015610e045780601f10610dd957610100808354040283529160200191610e04565b820191906000526020600020905b815481529060010190602001808311610de757829003601f168201915b5050505050908060060154908060070154905087565b60008054905090565b6001600080828254019250508190555060004290506000819050610e45610f54565b6040518061010001604052806000548152602001898152602001888152602001878152602001868152602001858152602001848152602001838152509050806001600080548152602001908152602001600020600082015181600001556020820151816001019080519060200190610ebe929190610f99565b506040820151816002019080519060200190610edb929190610f99565b506060820151816003019080519060200190610ef8929190610f99565b506080820151816004019080519060200190610f15929190610f99565b5060a0820151816005019080519060200190610f32929190611019565b5060c0820151816006015560e082015181600701559050505050505050505050565b60405180610100016040528060008152602001606081526020016060815260200160608152602001606081526020016060815260200160008152602001600081525090565b828054600181600116156101000203166002900490600052602060002090601f016020900481019282601f10610fda57805160ff1916838001178555611008565b82800160010185558215611008579182015b82811115611007578251825591602001919060010190610fec565b5b50905061101591906110cc565b5090565b828054828255906000526020600020906007016008900481019282156110bb5791602002820160005b8382111561108957835183826101000a81548163ffffffff021916908360030b63ffffffff1602179055509260200192600401602081600301049283019260010302611042565b80156110b95782816101000a81549063ffffffff0219169055600401602081600301049283019260010302611089565b505b5090506110c891906110f1565b5090565b6110ee91905b808211156110ea5760008160009055506001016110d2565b5090565b90565b61112191905b8082111561111d57600081816101000a81549063ffffffff0219169055506001016110f7565b5090565b9056fea165627a7a72305820acf79198b0e6d27817efac85ff21ad0da7913d35e2e96186474b98988c02ef3b0029",
  "source": "pragma solidity >=0.4.0 <0.7.0;\n\n// Contract for managing land entries.\ncontract RegistryEntities {\n\n    // Struct for storing data of land entry.\n    struct RegistryEntity {\n        uint id;\n        string title;\n        string description;\n        string documents_url;\n        string image_url;\n        int32[] points;\n        uint created_at;\n        uint updated_at;\n    }\n\n    // Autoincrementer:\n    uint current_id = 0;\n\n    // Map for storing land entries (id => land entry data).\n    mapping (uint => RegistryEntity) public _registryEntity;\n\n    // Function for creating and saving land entry to land entries map.\n    function create(string memory title,\n                    string memory description,\n                    string memory documents_url,\n                    string memory image_url,\n                    int32[] memory points\n    ) public {\n        current_id += 1;\n\n        uint created_at = block.timestamp;\n        uint updated_at = created_at;\n\n        RegistryEntity memory registryEntity = RegistryEntity({\n            id: current_id,\n            title: title,\n            description: description,\n            documents_url: documents_url,\n            image_url: image_url,\n            points: points,\n            created_at: created_at,\n            updated_at: updated_at\n        });\n\n        _registryEntity[current_id] = registryEntity;\n    }\n\n    // Function for getting land entry data by land entry id.\n    function find(uint id) public view returns (\n        uint,\n        string memory,\n        string memory,\n        string memory,\n        string memory,\n        int32[] memory,\n        uint,\n        uint\n    ) {\n        RegistryEntity memory registryEntity = _registryEntity[id];\n        return (\n            registryEntity.id,\n            registryEntity.title,\n            registryEntity.description,\n            registryEntity.documents_url,\n            registryEntity.image_url,\n            registryEntity.points,\n            registryEntity.created_at,\n            registryEntity.updated_at\n        );\n    }\n\n    function get_current_id() public view returns (uint) {\n        return current_id;\n    }\n\n}",
  "sourcePath": "/Users/sborod/projects/exyte/tellus/tellus_eth/contracts/RegistryEntities.sol",
  "compiler": {
    "name": "solc",
    "version": "0.5.8+commit.23d335f2.Emscripten.clang"
  },
  "schemaVersion": "3.0.10",
  "updatedAt": "2019-06-14T08:26:22.062Z",
  "devdoc": {
    "methods": {}
  },
  "userdoc": {
    "methods": {}
  }
}