{
  "contractName": "RegistryEntities",
  "abi": [
    {
      "constant": true,
      "inputs": [
        {
          "name": "",
          "type": "uint256"
        }
      ],
      "name": "_registryEntity",
      "outputs": [
        {
          "name": "id",
          "type": "uint256"
        },
        {
          "name": "title",
          "type": "string"
        },
        {
          "name": "description",
          "type": "string"
        },
        {
          "name": "documents_url",
          "type": "string"
        },
        {
          "name": "image_url",
          "type": "string"
        },
        {
          "name": "created_at",
          "type": "uint256"
        },
        {
          "name": "updated_at",
          "type": "uint256"
        }
      ],
      "payable": false,
      "stateMutability": "view",
      "type": "function"
    },
    {
      "constant": false,
      "inputs": [],
      "name": "initialize",
      "outputs": [],
      "payable": false,
      "stateMutability": "nonpayable",
      "type": "function"
    },
    {
      "constant": false,
      "inputs": [
        {
          "name": "title",
          "type": "string"
        },
        {
          "name": "description",
          "type": "string"
        },
        {
          "name": "documents_url",
          "type": "string"
        },
        {
          "name": "image_url",
          "type": "string"
        },
        {
          "name": "points",
          "type": "int32[]"
        }
      ],
      "name": "create",
      "outputs": [],
      "payable": false,
      "stateMutability": "nonpayable",
      "type": "function"
    },
    {
      "constant": true,
      "inputs": [
        {
          "name": "id",
          "type": "uint256"
        }
      ],
      "name": "find",
      "outputs": [
        {
          "name": "",
          "type": "uint256"
        },
        {
          "name": "",
          "type": "string"
        },
        {
          "name": "",
          "type": "string"
        },
        {
          "name": "",
          "type": "string"
        },
        {
          "name": "",
          "type": "string"
        },
        {
          "name": "",
          "type": "int32[]"
        },
        {
          "name": "",
          "type": "uint256"
        },
        {
          "name": "",
          "type": "uint256"
        }
      ],
      "payable": false,
      "stateMutability": "view",
      "type": "function"
    },
    {
      "constant": true,
      "inputs": [],
      "name": "get_current_id",
      "outputs": [
        {
          "name": "",
          "type": "uint256"
        }
      ],
      "payable": false,
      "stateMutability": "view",
      "type": "function"
    }
  ],
  "bytecode": "0x608060405234801561001057600080fd5b506112ae806100206000396000f3fe608060405234801561001057600080fd5b50600436106100575760003560e01c80633e530e5b1461005c57806364049caf146102a45780636b33b738146104a45780638129fc1c146104c2578063ea6a8b10146104cc575b600080fd5b6100886004803603602081101561007257600080fd5b81019080803590602001909291905050506107e0565b60405180898152602001806020018060200180602001806020018060200188815260200187815260200186810386528d818151815260200191508051906020019080838360005b838110156100ea5780820151818401526020810190506100cf565b50505050905090810190601f1680156101175780820380516001836020036101000a031916815260200191505b5086810385528c818151815260200191508051906020019080838360005b83811015610150578082015181840152602081019050610135565b50505050905090810190601f16801561017d5780820380516001836020036101000a031916815260200191505b5086810384528b818151815260200191508051906020019080838360005b838110156101b657808201518184015260208101905061019b565b50505050905090810190601f1680156101e35780820380516001836020036101000a031916815260200191505b5086810383528a818151815260200191508051906020019080838360005b8381101561021c578082015181840152602081019050610201565b50505050905090810190601f1680156102495780820380516001836020036101000a031916815260200191505b50868103825289818151815260200191508051906020019060200280838360005b8381101561028557808201518184015260208101905061026a565b505050509050019d505050505050505050505050505060405180910390f35b6102d0600480360360208110156102ba57600080fd5b8101908080359060200190929190505050610b8d565b604051808881526020018060200180602001806020018060200187815260200186815260200185810385528b818151815260200191508051906020019080838360005b8381101561032e578082015181840152602081019050610313565b50505050905090810190601f16801561035b5780820380516001836020036101000a031916815260200191505b5085810384528a818151815260200191508051906020019080838360005b83811015610394578082015181840152602081019050610379565b50505050905090810190601f1680156103c15780820380516001836020036101000a031916815260200191505b50858103835289818151815260200191508051906020019080838360005b838110156103fa5780820151818401526020810190506103df565b50505050905090810190601f1680156104275780820380516001836020036101000a031916815260200191505b50858103825288818151815260200191508051906020019080838360005b83811015610460578082015181840152602081019050610445565b50505050905090810190601f16801561048d5780820380516001836020036101000a031916815260200191505b509b50505050505050505050505060405180910390f35b6104ac610e2f565b6040518082815260200191505060405180910390f35b6104ca610e39565b005b6107de600480360360a08110156104e257600080fd5b81019080803590602001906401000000008111156104ff57600080fd5b82018360208201111561051157600080fd5b8035906020019184600183028401116401000000008311171561053357600080fd5b91908080601f016020809104026020016040519081016040528093929190818152602001838380828437600081840152601f19601f8201169050808301925050505050505091929192908035906020019064010000000081111561059657600080fd5b8201836020820111156105a857600080fd5b803590602001918460018302840111640100000000831117156105ca57600080fd5b91908080601f016020809104026020016040519081016040528093929190818152602001838380828437600081840152601f19601f8201169050808301925050505050505091929192908035906020019064010000000081111561062d57600080fd5b82018360208201111561063f57600080fd5b8035906020019184600183028401116401000000008311171561066157600080fd5b91908080601f016020809104026020016040519081016040528093929190818152602001838380828437600081840152601f19601f820116905080830192505050505050509192919290803590602001906401000000008111156106c457600080fd5b8201836020820111156106d657600080fd5b803590602001918460018302840111640100000000831117156106f857600080fd5b91908080601f016020809104026020016040519081016040528093929190818152602001838380828437600081840152601f19601f8201169050808301925050505050505091929192908035906020019064010000000081111561075b57600080fd5b82018360208201111561076d57600080fd5b8035906020019184602083028401116401000000008311171561078f57600080fd5b919080806020026020016040519081016040528093929190818152602001838360200280828437600081840152601f19601f820116905080830192505050505050509192919290505050610f40565b005b600060608060608060606000806107f5611084565b603460008b81526020019081526020016000206040518061010001604052908160008201548152602001600182018054600181600116156101000203166002900480601f0160208091040260200160405190810160405280929190818152602001828054600181600116156101000203166002900480156108b75780601f1061088c576101008083540402835291602001916108b7565b820191906000526020600020905b81548152906001019060200180831161089a57829003601f168201915b50505050508152602001600282018054600181600116156101000203166002900480601f0160208091040260200160405190810160405280929190818152602001828054600181600116156101000203166002900480156109595780601f1061092e57610100808354040283529160200191610959565b820191906000526020600020905b81548152906001019060200180831161093c57829003601f168201915b50505050508152602001600382018054600181600116156101000203166002900480601f0160208091040260200160405190810160405280929190818152602001828054600181600116156101000203166002900480156109fb5780601f106109d0576101008083540402835291602001916109fb565b820191906000526020600020905b8154815290600101906020018083116109de57829003601f168201915b50505050508152602001600482018054600181600116156101000203166002900480601f016020809104026020016040519081016040528092919081815260200182805460018160011615610100020316600290048015610a9d5780601f10610a7257610100808354040283529160200191610a9d565b820191906000526020600020905b815481529060010190602001808311610a8057829003601f168201915b5050505050815260200160058201805480602002602001604051908101604052809291908181526020018280548015610b1b57602002820191906000526020600020906000905b82829054906101000a900460030b60030b81526020019060040190602082600301049283019260010382029150808411610ae45790505b50505050508152602001600682015481526020016007820154815250509050806000015181602001518260400151836060015184608001518560a001518660c001518760e001518696508595508494508393508292509850985098509850985098509850985050919395975091939597565b6034602052806000526040600020600091509050806000015490806001018054600181600116156101000203166002900480601f016020809104026020016040519081016040528092919081815260200182805460018160011615610100020316600290048015610c3f5780601f10610c1457610100808354040283529160200191610c3f565b820191906000526020600020905b815481529060010190602001808311610c2257829003601f168201915b505050505090806002018054600181600116156101000203166002900480601f016020809104026020016040519081016040528092919081815260200182805460018160011615610100020316600290048015610cdd5780601f10610cb257610100808354040283529160200191610cdd565b820191906000526020600020905b815481529060010190602001808311610cc057829003601f168201915b505050505090806003018054600181600116156101000203166002900480601f016020809104026020016040519081016040528092919081815260200182805460018160011615610100020316600290048015610d7b5780601f10610d5057610100808354040283529160200191610d7b565b820191906000526020600020905b815481529060010190602001808311610d5e57829003601f168201915b505050505090806004018054600181600116156101000203166002900480601f016020809104026020016040519081016040528092919081815260200182805460018160011615610100020316600290048015610e195780601f10610dee57610100808354040283529160200191610e19565b820191906000526020600020905b815481529060010190602001808311610dfc57829003601f168201915b5050505050908060060154908060070154905087565b6000603354905090565b600060019054906101000a900460ff1680610e585750610e57611073565b5b80610e6f57506000809054906101000a900460ff16155b610ec4576040517f08c379a000000000000000000000000000000000000000000000000000000000815260040180806020018281038252602e815260200180611255602e913960400191505060405180910390fd5b60008060019054906101000a900460ff161590508015610f14576001600060016101000a81548160ff02191690831515021790555060016000806101000a81548160ff0219169083151502179055505b60006033819055508015610f3d5760008060016101000a81548160ff0219169083151502179055505b50565b600160336000828254019250508190555060004290506000819050610f63611084565b604051806101000160405280603354815260200189815260200188815260200187815260200186815260200185815260200184815260200183815250905080603460006033548152602001908152602001600020600082015181600001556020820151816001019080519060200190610fdd9291906110c9565b506040820151816002019080519060200190610ffa9291906110c9565b5060608201518160030190805190602001906110179291906110c9565b5060808201518160040190805190602001906110349291906110c9565b5060a0820151816005019080519060200190611051929190611149565b5060c0820151816006015560e082015181600701559050505050505050505050565b600080303b90506000811491505090565b60405180610100016040528060008152602001606081526020016060815260200160608152602001606081526020016060815260200160008152602001600081525090565b828054600181600116156101000203166002900490600052602060002090601f016020900481019282601f1061110a57805160ff1916838001178555611138565b82800160010185558215611138579182015b8281111561113757825182559160200191906001019061111c565b5b50905061114591906111fc565b5090565b828054828255906000526020600020906007016008900481019282156111eb5791602002820160005b838211156111b957835183826101000a81548163ffffffff021916908360030b63ffffffff1602179055509260200192600401602081600301049283019260010302611172565b80156111e95782816101000a81549063ffffffff02191690556004016020816003010492830192600103026111b9565b505b5090506111f89190611221565b5090565b61121e91905b8082111561121a576000816000905550600101611202565b5090565b90565b61125191905b8082111561124d57600081816101000a81549063ffffffff021916905550600101611227565b5090565b9056fe436f6e747261637420696e7374616e63652068617320616c7265616479206265656e20696e697469616c697a6564a165627a7a72305820092611c9e2d1a8649c20a04121231ff91b9432f3223e9dddb1c997d49cfa21d70029",
  "source": "pragma solidity >=0.4.0 <0.7.0;\n\nimport \"zos-lib/contracts/Initializable.sol\";\n\n// Contract for managing land entries.\ncontract RegistryEntities is Initializable {\n\n    // Struct for storing data of land entry.\n    struct RegistryEntity {\n        uint id;\n        string title;\n        string description;\n        string documents_url;\n        string image_url;\n        int32[] points;\n        uint created_at;\n        uint updated_at;\n    }\n\n    // Autoincrementer:\n    uint current_id;\n\n    function initialize() initializer public {\n        current_id = 0;\n    }\n\n    // Map for storing land entries (id => land entry data).\n    mapping (uint => RegistryEntity) public _registryEntity;\n\n    // Function for creating and saving land entry to land entries map.\n    function create(string memory title,\n                    string memory description,\n                    string memory documents_url,\n                    string memory image_url,\n                    int32[] memory points\n    ) public {\n        current_id += 1;\n\n        uint created_at = block.timestamp;\n        uint updated_at = created_at;\n\n        RegistryEntity memory registryEntity = RegistryEntity({\n            id: current_id,\n            title: title,\n            description: description,\n            documents_url: documents_url,\n            image_url: image_url,\n            points: points,\n            created_at: created_at,\n            updated_at: updated_at\n        });\n\n        _registryEntity[current_id] = registryEntity;\n    }\n\n    // Function for getting land entry data by land entry id.\n    function find(uint id) public view returns (\n        uint,\n        string memory,\n        string memory,\n        string memory,\n        string memory,\n        int32[] memory,\n        uint,\n        uint\n    ) {\n        RegistryEntity memory registryEntity = _registryEntity[id];\n        return (\n            registryEntity.id,\n            registryEntity.title,\n            registryEntity.description,\n            registryEntity.documents_url,\n            registryEntity.image_url,\n            registryEntity.points,\n            registryEntity.created_at,\n            registryEntity.updated_at\n        );\n    }\n\n    function get_current_id() public view returns (uint) {\n        return current_id;\n    }\n\n}",
  "sourcePath": "/Users/sborod/projects/exyte/tellus/tellus_eth/contracts/RegistryEntities.sol",
  "compiler": {
    "name": "solc",
    "version": "0.5.8+commit.23d335f2.Emscripten.clang"
  },
  "schemaVersion": "3.0.10",
  "updatedAt": "2019-06-19T09:03:04.201Z",
  "devdoc": {
    "methods": {}
  },
  "userdoc": {
    "methods": {}
  }
}