{
  "contractName": "Users",
  "abi": [
    {
      "constant": true,
      "inputs": [
        {
          "name": "",
          "type": "address"
        }
      ],
      "name": "_users",
      "outputs": [
        {
          "name": "id",
          "type": "uint256"
        },
        {
          "name": "addr",
          "type": "address"
        }
      ],
      "payable": false,
      "stateMutability": "view",
      "type": "function"
    },
    {
      "constant": false,
      "inputs": [
        {
          "name": "addr",
          "type": "address"
        }
      ],
      "name": "create",
      "outputs": [],
      "payable": false,
      "stateMutability": "nonpayable",
      "type": "function"
    }
  ],
  "bytecode": "0x60806040526000805534801561001457600080fd5b5061028a806100246000396000f3fe608060405234801561001057600080fd5b50600436106100365760003560e01c80633cacd7d61461003b5780639ed93318146100c6575b600080fd5b61007d6004803603602081101561005157600080fd5b81019080803573ffffffffffffffffffffffffffffffffffffffff16906020019092919050505061010a565b604051808381526020018273ffffffffffffffffffffffffffffffffffffffff1673ffffffffffffffffffffffffffffffffffffffff1681526020019250505060405180910390f35b610108600480360360208110156100dc57600080fd5b81019080803573ffffffffffffffffffffffffffffffffffffffff16906020019092919050505061014e565b005b60016020528060005260406000206000915090508060000154908060010160009054906101000a900473ffffffffffffffffffffffffffffffffffffffff16905082565b600080815480929190600101919050555061016761022e565b604051806040016040528060005481526020018373ffffffffffffffffffffffffffffffffffffffff16815250905080600160008473ffffffffffffffffffffffffffffffffffffffff1673ffffffffffffffffffffffffffffffffffffffff1681526020019081526020016000206000820151816000015560208201518160010160006101000a81548173ffffffffffffffffffffffffffffffffffffffff021916908373ffffffffffffffffffffffffffffffffffffffff1602179055509050505050565b604051806040016040528060008152602001600073ffffffffffffffffffffffffffffffffffffffff168152509056fea165627a7a72305820548079ef6b59a3ae5185dd029fe2f7421cc45c556284d70cc7dd1448a4ac90c60029",
  "source": "pragma solidity >=0.4.0 <0.7.0;\n\ncontract Users {\n\n    struct User {\n        uint id;\n        address addr;\n    }\n\n    // Autoincrementer:\n    uint current_id = 0;\n\n    mapping(address => User) public _users;\n\n    function create(address addr) public {\n        current_id++;\n\n        User memory user = User({\n            id: current_id,\n            addr: addr\n        });\n\n        _users[addr] = user;\n    }\n\n}",
  "sourcePath": "/Users/sborod/projects/exyte/tellus/tellus_eth/contracts/Users.sol",
  "compiler": {
    "name": "solc",
    "version": "0.5.8+commit.23d335f2.Emscripten.clang"
  },
  "schemaVersion": "3.0.10",
  "updatedAt": "2019-06-04T11:09:00.030Z",
  "devdoc": {
    "methods": {}
  },
  "userdoc": {
    "methods": {}
  }
}