{
  "contractName": "Users",
  "abi": [
    {
      "constant": true,
      "inputs": [
        {
          "name": "",
          "type": "address"
        }
      ],
      "name": "_users",
      "outputs": [
        {
          "name": "id",
          "type": "uint256"
        },
        {
          "name": "addr",
          "type": "address"
        },
        {
          "name": "role",
          "type": "uint256"
        },
        {
          "name": "created_at",
          "type": "uint256"
        }
      ],
      "payable": false,
      "stateMutability": "view",
      "type": "function"
    },
    {
      "inputs": [],
      "payable": false,
      "stateMutability": "nonpayable",
      "type": "constructor"
    },
    {
      "constant": false,
      "inputs": [
        {
          "name": "addr",
          "type": "address"
        },
        {
          "name": "role",
          "type": "uint256"
        }
      ],
      "name": "create",
      "outputs": [],
      "payable": false,
      "stateMutability": "nonpayable",
      "type": "function"
    },
    {
      "constant": true,
      "inputs": [],
      "name": "get_my_role",
      "outputs": [
        {
          "name": "",
          "type": "uint256"
        }
      ],
      "payable": false,
      "stateMutability": "view",
      "type": "function"
    },
    {
      "constant": true,
      "inputs": [
        {
          "name": "addr",
          "type": "address"
        }
      ],
      "name": "get_user",
      "outputs": [
        {
          "name": "",
          "type": "uint256"
        },
        {
          "name": "",
          "type": "address"
        },
        {
          "name": "",
          "type": "uint256"
        },
        {
          "name": "",
          "type": "uint256"
        }
      ],
      "payable": false,
      "stateMutability": "view",
      "type": "function"
    }
  ],
  "bytecode": "0x60806040526000805534801561001457600080fd5b5061002632600161002b60201b60201c565b610287565b610033610249565b600160008473ffffffffffffffffffffffffffffffffffffffff1673ffffffffffffffffffffffffffffffffffffffff168152602001908152602001600020604051806080016040529081600082015481526020016001820160009054906101000a900473ffffffffffffffffffffffffffffffffffffffff1673ffffffffffffffffffffffffffffffffffffffff1673ffffffffffffffffffffffffffffffffffffffff1681526020016002820154815260200160038201548152505090506000816060015114610150576040517f08c379a00000000000000000000000000000000000000000000000000000000081526004018080602001828103825260238152602001806109476023913960400191505060405180910390fd5b6000808154809291906001019190505550604051806080016040528060005481526020018473ffffffffffffffffffffffffffffffffffffffff16815260200183815260200142815250905080600160008573ffffffffffffffffffffffffffffffffffffffff1673ffffffffffffffffffffffffffffffffffffffff1681526020019081526020016000206000820151816000015560208201518160010160006101000a81548173ffffffffffffffffffffffffffffffffffffffff021916908373ffffffffffffffffffffffffffffffffffffffff1602179055506040820151816002015560608201518160030155905050505050565b604051806080016040528060008152602001600073ffffffffffffffffffffffffffffffffffffffff16815260200160008152602001600081525090565b6106b1806102966000396000f3fe608060405234801561001057600080fd5b506004361061004c5760003560e01c80630ecaea73146100515780633cacd7d61461009f57806371ad722114610138578063f9bd2d58146101d1575b600080fd5b61009d6004803603604081101561006757600080fd5b81019080803573ffffffffffffffffffffffffffffffffffffffff169060200190929190803590602001909291905050506101ef565b005b6100e1600480360360208110156100b557600080fd5b81019080803573ffffffffffffffffffffffffffffffffffffffff16906020019092919050505061040d565b604051808581526020018473ffffffffffffffffffffffffffffffffffffffff1673ffffffffffffffffffffffffffffffffffffffff16815260200183815260200182815260200194505050505060405180910390f35b61017a6004803603602081101561014e57600080fd5b81019080803573ffffffffffffffffffffffffffffffffffffffff16906020019092919050505061045d565b604051808581526020018473ffffffffffffffffffffffffffffffffffffffff1673ffffffffffffffffffffffffffffffffffffffff16815260200183815260200182815260200194505050505060405180910390f35b6101d961054f565b6040518082815260200191505060405180910390f35b6101f7610624565b600160008473ffffffffffffffffffffffffffffffffffffffff1673ffffffffffffffffffffffffffffffffffffffff168152602001908152602001600020604051806080016040529081600082015481526020016001820160009054906101000a900473ffffffffffffffffffffffffffffffffffffffff1673ffffffffffffffffffffffffffffffffffffffff1673ffffffffffffffffffffffffffffffffffffffff1681526020016002820154815260200160038201548152505090506000816060015114610314576040517f08c379a00000000000000000000000000000000000000000000000000000000081526004018080602001828103825260238152602001806106636023913960400191505060405180910390fd5b6000808154809291906001019190505550604051806080016040528060005481526020018473ffffffffffffffffffffffffffffffffffffffff16815260200183815260200142815250905080600160008573ffffffffffffffffffffffffffffffffffffffff1673ffffffffffffffffffffffffffffffffffffffff1681526020019081526020016000206000820151816000015560208201518160010160006101000a81548173ffffffffffffffffffffffffffffffffffffffff021916908373ffffffffffffffffffffffffffffffffffffffff1602179055506040820151816002015560608201518160030155905050505050565b60016020528060005260406000206000915090508060000154908060010160009054906101000a900473ffffffffffffffffffffffffffffffffffffffff16908060020154908060030154905084565b60008060008061046b610624565b600160008773ffffffffffffffffffffffffffffffffffffffff1673ffffffffffffffffffffffffffffffffffffffff168152602001908152602001600020604051806080016040529081600082015481526020016001820160009054906101000a900473ffffffffffffffffffffffffffffffffffffffff1673ffffffffffffffffffffffffffffffffffffffff1673ffffffffffffffffffffffffffffffffffffffff16815260200160028201548152602001600382015481525050905080600001518160200151826040015183606001519450945094509450509193509193565b6000610559610624565b600160003273ffffffffffffffffffffffffffffffffffffffff1673ffffffffffffffffffffffffffffffffffffffff168152602001908152602001600020604051806080016040529081600082015481526020016001820160009054906101000a900473ffffffffffffffffffffffffffffffffffffffff1673ffffffffffffffffffffffffffffffffffffffff1673ffffffffffffffffffffffffffffffffffffffff168152602001600282015481526020016003820154815250509050806040015191505090565b604051806080016040528060008152602001600073ffffffffffffffffffffffffffffffffffffffff1681526020016000815260200160008152509056fe557365722073686f756c64206e6f742062652063726561746564206561726c6965722ea165627a7a72305820c7b389ebbf9f9bc6f6f9f9835fe0203b56ae910da35f7034cd40bc07fd03fcaa0029557365722073686f756c64206e6f742062652063726561746564206561726c6965722e",
  "source": "pragma solidity >=0.4.0 <0.7.0;\n\ncontract Users {\n\n    struct User {\n        uint id;\n        address addr;\n        uint role;\n        uint created_at;\n    }\n\n    constructor () public {\n        // Create first user on init with role=1 (deployer)\n        create(tx.origin, 1);\n    }\n\n    // Autoincrementer:\n    uint current_id = 0;\n\n    mapping (address => User) public _users;\n\n    // Method for creating new user and adding it to list of users\n    function create (address addr, uint role) public {\n        User memory user = _users[addr];\n        require(\n            user.created_at == 0,\n            \"User should not be created earlier.\"\n        );\n        current_id++;\n        user = User({\n            id: current_id,\n            addr: addr,\n            role: role,\n            created_at: block.timestamp\n        });\n        _users[addr] = user;\n    }\n\n    function get_my_role() public view returns (uint) {\n        User memory user = _users[tx.origin];\n        return user.role;\n    }\n\n    function get_user(address addr) public view returns (uint256, address, uint256, uint256) {\n        User memory user = _users[addr];\n        return (user.id, user.addr, user.role, user.created_at);\n    }\n}",
  "sourcePath": "/Users/sborod/projects/exyte/tellus/tellus_eth/contracts/Users.sol",
  "compiler": {
    "name": "solc",
    "version": "0.5.8+commit.23d335f2.Emscripten.clang"
  },
  "schemaVersion": "3.0.10",
  "updatedAt": "2019-06-14T08:26:22.067Z",
  "devdoc": {
    "methods": {}
  },
  "userdoc": {
    "methods": {}
  }
}