{
  "contractName": "Users",
  "abi": [
    {
      "constant": true,
      "inputs": [
        {
          "name": "",
          "type": "address"
        }
      ],
      "name": "_users",
      "outputs": [
        {
          "name": "id",
          "type": "uint256"
        },
        {
          "name": "addr",
          "type": "address"
        },
        {
          "name": "role",
          "type": "uint256"
        },
        {
          "name": "created_at",
          "type": "uint256"
        }
      ],
      "payable": false,
      "stateMutability": "view",
      "type": "function"
    },
    {
      "anonymous": false,
      "inputs": [
        {
          "indexed": true,
          "name": "_id",
          "type": "uint256"
        },
        {
          "indexed": false,
          "name": "_addr",
          "type": "address"
        },
        {
          "indexed": false,
          "name": "_role",
          "type": "uint256"
        },
        {
          "indexed": false,
          "name": "created_at",
          "type": "uint256"
        }
      ],
      "name": "AfterUserCreate",
      "type": "event"
    },
    {
      "constant": false,
      "inputs": [],
      "name": "initialize",
      "outputs": [],
      "payable": false,
      "stateMutability": "nonpayable",
      "type": "function"
    },
    {
      "constant": false,
      "inputs": [
        {
          "name": "addr",
          "type": "address"
        },
        {
          "name": "role",
          "type": "uint256"
        }
      ],
      "name": "create",
      "outputs": [],
      "payable": false,
      "stateMutability": "nonpayable",
      "type": "function"
    },
    {
      "constant": true,
      "inputs": [],
      "name": "get_my_role",
      "outputs": [
        {
          "name": "",
          "type": "uint256"
        }
      ],
      "payable": false,
      "stateMutability": "view",
      "type": "function"
    },
    {
      "constant": true,
      "inputs": [
        {
          "name": "addr",
          "type": "address"
        }
      ],
      "name": "get_user",
      "outputs": [
        {
          "name": "",
          "type": "uint256"
        },
        {
          "name": "",
          "type": "address"
        },
        {
          "name": "",
          "type": "uint256"
        },
        {
          "name": "",
          "type": "uint256"
        }
      ],
      "payable": false,
      "stateMutability": "view",
      "type": "function"
    }
  ],
  "bytecode": "0x608060405234801561001057600080fd5b5061088e806100206000396000f3fe608060405234801561001057600080fd5b50600436106100575760003560e01c80630ecaea731461005c5780633cacd7d6146100aa57806371ad7221146101435780638129fc1c146101dc578063f9bd2d58146101e6575b600080fd5b6100a86004803603604081101561007257600080fd5b81019080803573ffffffffffffffffffffffffffffffffffffffff16906020019092919080359060200190929190505050610204565b005b6100ec600480360360208110156100c057600080fd5b81019080803573ffffffffffffffffffffffffffffffffffffffff169060200190929190505050610499565b604051808581526020018473ffffffffffffffffffffffffffffffffffffffff1673ffffffffffffffffffffffffffffffffffffffff16815260200183815260200182815260200194505050505060405180910390f35b6101856004803603602081101561015957600080fd5b81019080803573ffffffffffffffffffffffffffffffffffffffff1690602001909291905050506104e9565b604051808581526020018473ffffffffffffffffffffffffffffffffffffffff1673ffffffffffffffffffffffffffffffffffffffff16815260200183815260200182815260200194505050505060405180910390f35b6101e46105db565b005b6101ee6106ed565b6040518082815260200191505060405180910390f35b61020c6107d3565b603460008473ffffffffffffffffffffffffffffffffffffffff1673ffffffffffffffffffffffffffffffffffffffff168152602001908152602001600020604051806080016040529081600082015481526020016001820160009054906101000a900473ffffffffffffffffffffffffffffffffffffffff1673ffffffffffffffffffffffffffffffffffffffff1673ffffffffffffffffffffffffffffffffffffffff1681526020016002820154815260200160038201548152505090506000816060015114610329576040517f08c379a00000000000000000000000000000000000000000000000000000000081526004018080602001828103825260238152602001806108126023913960400191505060405180910390fd5b603360008154809291906001019190505550604051806080016040528060335481526020018473ffffffffffffffffffffffffffffffffffffffff16815260200183815260200142815250905080603460008573ffffffffffffffffffffffffffffffffffffffff1673ffffffffffffffffffffffffffffffffffffffff1681526020019081526020016000206000820151816000015560208201518160010160006101000a81548173ffffffffffffffffffffffffffffffffffffffff021916908373ffffffffffffffffffffffffffffffffffffffff16021790555060408201518160020155606082015181600301559050506033547f1dd90bdbad4625c3a7bc60ff3685b77d1a8bd3ba15844e15fd754cadf3eaa751848442604051808473ffffffffffffffffffffffffffffffffffffffff1673ffffffffffffffffffffffffffffffffffffffff168152602001838152602001828152602001935050505060405180910390a2505050565b60346020528060005260406000206000915090508060000154908060010160009054906101000a900473ffffffffffffffffffffffffffffffffffffffff16908060020154908060030154905084565b6000806000806104f76107d3565b603460008773ffffffffffffffffffffffffffffffffffffffff1673ffffffffffffffffffffffffffffffffffffffff168152602001908152602001600020604051806080016040529081600082015481526020016001820160009054906101000a900473ffffffffffffffffffffffffffffffffffffffff1673ffffffffffffffffffffffffffffffffffffffff1673ffffffffffffffffffffffffffffffffffffffff16815260200160028201548152602001600382015481525050905080600001518160200151826040015183606001519450945094509450509193509193565b600060019054906101000a900460ff16806105fa57506105f96107c2565b5b8061061157506000809054906101000a900460ff16155b610666576040517f08c379a000000000000000000000000000000000000000000000000000000000815260040180806020018281038252602e815260200180610835602e913960400191505060405180910390fd5b60008060019054906101000a900460ff1615905080156106b6576001600060016101000a81548160ff02191690831515021790555060016000806101000a81548160ff0219169083151502179055505b60006033819055506106c9326001610204565b80156106ea5760008060016101000a81548160ff0219169083151502179055505b50565b60006106f76107d3565b603460003273ffffffffffffffffffffffffffffffffffffffff1673ffffffffffffffffffffffffffffffffffffffff168152602001908152602001600020604051806080016040529081600082015481526020016001820160009054906101000a900473ffffffffffffffffffffffffffffffffffffffff1673ffffffffffffffffffffffffffffffffffffffff1673ffffffffffffffffffffffffffffffffffffffff168152602001600282015481526020016003820154815250509050806040015191505090565b600080303b90506000811491505090565b604051806080016040528060008152602001600073ffffffffffffffffffffffffffffffffffffffff1681526020016000815260200160008152509056fe557365722073686f756c64206e6f742062652063726561746564206561726c6965722e436f6e747261637420696e7374616e63652068617320616c7265616479206265656e20696e697469616c697a6564a165627a7a723058204896940661baf830541cd3f0b7b09183d3e217b1cae6db43640b392b16706b810029",
  "source": "pragma solidity >=0.4.0 <0.7.0;\n\nimport \"zos-lib/contracts/Initializable.sol\";\n\ncontract Users is Initializable {\n\n    struct User {\n        uint id;\n        address addr;\n        uint role;\n        uint created_at;\n    }\n\n    event AfterUserCreate(\n        uint indexed _id,\n        address _addr,\n        uint _role,\n        uint created_at\n    );\n\n    // Autoincrementer:\n    uint current_id;\n\n    function initialize() initializer public {\n        current_id = 0;\n\n        // Create first user on init with role=1 (deployer)\n        create(tx.origin, 1);\n    }\n\n    mapping (address => User) public _users;\n\n    // Method for creating new user and adding it to list of users\n    function create (address addr, uint role) public {\n        User memory user = _users[addr];\n\n        require(\n            user.created_at == 0,\n            \"User should not be created earlier.\"\n        );\n\n        current_id++;\n\n        user = User({\n            id: current_id,\n            addr: addr,\n            role: role,\n            created_at: block.timestamp\n        });\n\n        _users[addr] = user;\n\n        emit AfterUserCreate(current_id, addr, role, block.timestamp);\n    }\n\n    function get_my_role() public view returns (uint) {\n        User memory user = _users[tx.origin];\n        return user.role;\n    }\n\n    function get_user(address addr) public view returns (uint256, address, uint256, uint256) {\n        User memory user = _users[addr];\n        return (user.id, user.addr, user.role, user.created_at);\n    }\n}",
  "sourcePath": "/Users/sborod/projects/exyte/tellus/tellus_eth/contracts/Users.sol",
  "compiler": {
    "name": "solc",
    "version": "0.5.8+commit.23d335f2.Emscripten.clang"
  },
  "schemaVersion": "3.0.10",
  "updatedAt": "2019-07-02T07:49:18.810Z",
  "devdoc": {
    "methods": {}
  },
  "userdoc": {
    "methods": {}
  }
}