{
  "contractName": "RegistryEntities",
  "abi": [
    {
      "constant": true,
      "inputs": [
        {
          "name": "",
          "type": "uint256"
        }
      ],
      "name": "_registryEntities",
      "outputs": [
        {
          "name": "id",
          "type": "uint256"
        },
        {
          "name": "title",
          "type": "string"
        },
        {
          "name": "description",
          "type": "string"
        },
        {
          "name": "documents_url",
          "type": "string"
        },
        {
          "name": "image_url",
          "type": "string"
        },
        {
          "name": "priceUSD",
          "type": "string"
        },
        {
          "name": "created_at",
          "type": "uint256"
        },
        {
          "name": "updated_at",
          "type": "uint256"
        }
      ],
      "payable": false,
      "stateMutability": "view",
      "type": "function"
    },
    {
      "anonymous": false,
      "inputs": [
        {
          "indexed": true,
          "name": "_id",
          "type": "uint256"
        },
        {
          "indexed": false,
          "name": "_title",
          "type": "string"
        },
        {
          "indexed": false,
          "name": "_description",
          "type": "string"
        },
        {
          "indexed": false,
          "name": "_documents_url",
          "type": "string"
        },
        {
          "indexed": false,
          "name": "_image_url",
          "type": "string"
        },
        {
          "indexed": false,
          "name": "priceUSD",
          "type": "string"
        },
        {
          "indexed": false,
          "name": "_points",
          "type": "int32[]"
        },
        {
          "indexed": false,
          "name": "_created_at",
          "type": "uint256"
        }
      ],
      "name": "AfterRegistryEntityCreated",
      "type": "event"
    },
    {
      "constant": false,
      "inputs": [],
      "name": "initialize",
      "outputs": [],
      "payable": false,
      "stateMutability": "nonpayable",
      "type": "function"
    },
    {
      "constant": false,
      "inputs": [
        {
          "name": "title",
          "type": "string"
        },
        {
          "name": "description",
          "type": "string"
        },
        {
          "name": "documents_url",
          "type": "string"
        },
        {
          "name": "image_url",
          "type": "string"
        },
        {
          "name": "priceUSD",
          "type": "string"
        },
        {
          "name": "points",
          "type": "int32[]"
        }
      ],
      "name": "create",
      "outputs": [],
      "payable": true,
      "stateMutability": "payable",
      "type": "function"
    },
    {
      "constant": true,
      "inputs": [
        {
          "name": "id",
          "type": "uint256"
        }
      ],
      "name": "find",
      "outputs": [
        {
          "name": "",
          "type": "uint256"
        },
        {
          "name": "",
          "type": "string"
        },
        {
          "name": "",
          "type": "string"
        },
        {
          "name": "",
          "type": "string"
        },
        {
          "name": "",
          "type": "string"
        },
        {
          "name": "",
          "type": "string"
        },
        {
          "name": "",
          "type": "int32[]"
        },
        {
          "name": "",
          "type": "uint256"
        },
        {
          "name": "",
          "type": "uint256"
        }
      ],
      "payable": false,
      "stateMutability": "view",
      "type": "function"
    },
    {
      "constant": true,
      "inputs": [],
      "name": "get_current_id",
      "outputs": [
        {
          "name": "",
          "type": "uint256"
        }
      ],
      "payable": false,
      "stateMutability": "view",
      "type": "function"
    }
  ],
  "bytecode": "0x608060405234801561001057600080fd5b506118e0806100206000396000f3fe60806040526004361061004a5760003560e01c80630259b6291461004f5780633e530e5b146102c85780636b33b738146105895780638129fc1c146105b4578063c2323702146105cb575b600080fd5b34801561005b57600080fd5b506100886004803603602081101561007257600080fd5b8101908080359060200190929190505050610976565b60405180898152602001806020018060200180602001806020018060200188815260200187815260200186810386528d818151815260200191508051906020019080838360005b838110156100ea5780820151818401526020810190506100cf565b50505050905090810190601f1680156101175780820380516001836020036101000a031916815260200191505b5086810385528c818151815260200191508051906020019080838360005b83811015610150578082015181840152602081019050610135565b50505050905090810190601f16801561017d5780820380516001836020036101000a031916815260200191505b5086810384528b818151815260200191508051906020019080838360005b838110156101b657808201518184015260208101905061019b565b50505050905090810190601f1680156101e35780820380516001836020036101000a031916815260200191505b5086810383528a818151815260200191508051906020019080838360005b8381101561021c578082015181840152602081019050610201565b50505050905090810190601f1680156102495780820380516001836020036101000a031916815260200191505b50868103825289818151815260200191508051906020019080838360005b83811015610282578082015181840152602081019050610267565b50505050905090810190601f1680156102af5780820380516001836020036101000a031916815260200191505b509d505050505050505050505050505060405180910390f35b3480156102d457600080fd5b50610301600480360360208110156102eb57600080fd5b8101908080359060200190929190505050610cb6565b604051808a815260200180602001806020018060200180602001806020018060200189815260200188815260200187810387528f818151815260200191508051906020019080838360005b8381101561036757808201518184015260208101905061034c565b50505050905090810190601f1680156103945780820380516001836020036101000a031916815260200191505b5087810386528e818151815260200191508051906020019080838360005b838110156103cd5780820151818401526020810190506103b2565b50505050905090810190601f1680156103fa5780820380516001836020036101000a031916815260200191505b5087810385528d818151815260200191508051906020019080838360005b83811015610433578082015181840152602081019050610418565b50505050905090810190601f1680156104605780820380516001836020036101000a031916815260200191505b5087810384528c818151815260200191508051906020019080838360005b8381101561049957808201518184015260208101905061047e565b50505050905090810190601f1680156104c65780820380516001836020036101000a031916815260200191505b5087810383528b818151815260200191508051906020019080838360005b838110156104ff5780820151818401526020810190506104e4565b50505050905090810190601f16801561052c5780820380516001836020036101000a031916815260200191505b5087810382528a818151815260200191508051906020019060200280838360005b8381101561056857808201518184015260208101905061054d565b505050509050019f5050505050505050505050505050505060405180910390f35b34801561059557600080fd5b5061059e611113565b6040518082815260200191505060405180910390f35b3480156105c057600080fd5b506105c961111d565b005b610974600480360360c08110156105e157600080fd5b81019080803590602001906401000000008111156105fe57600080fd5b82018360208201111561061057600080fd5b8035906020019184600183028401116401000000008311171561063257600080fd5b91908080601f016020809104026020016040519081016040528093929190818152602001838380828437600081840152601f19601f8201169050808301925050505050505091929192908035906020019064010000000081111561069557600080fd5b8201836020820111156106a757600080fd5b803590602001918460018302840111640100000000831117156106c957600080fd5b91908080601f016020809104026020016040519081016040528093929190818152602001838380828437600081840152601f19601f8201169050808301925050505050505091929192908035906020019064010000000081111561072c57600080fd5b82018360208201111561073e57600080fd5b8035906020019184600183028401116401000000008311171561076057600080fd5b91908080601f016020809104026020016040519081016040528093929190818152602001838380828437600081840152601f19601f820116905080830192505050505050509192919290803590602001906401000000008111156107c357600080fd5b8201836020820111156107d557600080fd5b803590602001918460018302840111640100000000831117156107f757600080fd5b91908080601f016020809104026020016040519081016040528093929190818152602001838380828437600081840152601f19601f8201169050808301925050505050505091929192908035906020019064010000000081111561085a57600080fd5b82018360208201111561086c57600080fd5b8035906020019184600183028401116401000000008311171561088e57600080fd5b91908080601f016020809104026020016040519081016040528093929190818152602001838380828437600081840152601f19601f820116905080830192505050505050509192919290803590602001906401000000008111156108f157600080fd5b82018360208201111561090357600080fd5b8035906020019184602083028401116401000000008311171561092557600080fd5b919080806020026020016040519081016040528093929190818152602001838360200280828437600081840152601f19601f820116905080830192505050505050509192919290505050611224565b005b6034602052806000526040600020600091509050806000015490806001018054600181600116156101000203166002900480601f016020809104026020016040519081016040528092919081815260200182805460018160011615610100020316600290048015610a285780601f106109fd57610100808354040283529160200191610a28565b820191906000526020600020905b815481529060010190602001808311610a0b57829003601f168201915b505050505090806002018054600181600116156101000203166002900480601f016020809104026020016040519081016040528092919081815260200182805460018160011615610100020316600290048015610ac65780601f10610a9b57610100808354040283529160200191610ac6565b820191906000526020600020905b815481529060010190602001808311610aa957829003601f168201915b505050505090806003018054600181600116156101000203166002900480601f016020809104026020016040519081016040528092919081815260200182805460018160011615610100020316600290048015610b645780601f10610b3957610100808354040283529160200191610b64565b820191906000526020600020905b815481529060010190602001808311610b4757829003601f168201915b505050505090806004018054600181600116156101000203166002900480601f016020809104026020016040519081016040528092919081815260200182805460018160011615610100020316600290048015610c025780601f10610bd757610100808354040283529160200191610c02565b820191906000526020600020905b815481529060010190602001808311610be557829003601f168201915b505050505090806005018054600181600116156101000203166002900480601f016020809104026020016040519081016040528092919081815260200182805460018160011615610100020316600290048015610ca05780601f10610c7557610100808354040283529160200191610ca0565b820191906000526020600020905b815481529060010190602001808311610c8357829003601f168201915b5050505050908060070154908060080154905088565b6000606080606080606080600080610ccc6116af565b603460008c81526020019081526020016000206040518061012001604052908160008201548152602001600182018054600181600116156101000203166002900480601f016020809104026020016040519081016040528092919081815260200182805460018160011615610100020316600290048015610d8e5780601f10610d6357610100808354040283529160200191610d8e565b820191906000526020600020905b815481529060010190602001808311610d7157829003601f168201915b50505050508152602001600282018054600181600116156101000203166002900480601f016020809104026020016040519081016040528092919081815260200182805460018160011615610100020316600290048015610e305780601f10610e0557610100808354040283529160200191610e30565b820191906000526020600020905b815481529060010190602001808311610e1357829003601f168201915b50505050508152602001600382018054600181600116156101000203166002900480601f016020809104026020016040519081016040528092919081815260200182805460018160011615610100020316600290048015610ed25780601f10610ea757610100808354040283529160200191610ed2565b820191906000526020600020905b815481529060010190602001808311610eb557829003601f168201915b50505050508152602001600482018054600181600116156101000203166002900480601f016020809104026020016040519081016040528092919081815260200182805460018160011615610100020316600290048015610f745780601f10610f4957610100808354040283529160200191610f74565b820191906000526020600020905b815481529060010190602001808311610f5757829003601f168201915b50505050508152602001600582018054600181600116156101000203166002900480601f0160208091040260200160405190810160405280929190818152602001828054600181600116156101000203166002900480156110165780601f10610feb57610100808354040283529160200191611016565b820191906000526020600020905b815481529060010190602001808311610ff957829003601f168201915b505050505081526020016006820180548060200260200160405190810160405280929190818152602001828054801561109457602002820191906000526020600020906000905b82829054906101000a900460030b60030b8152602001906004019060208260030104928301926001038202915080841161105d5790505b50505050508152602001600782015481526020016008820154815250509050806000015181602001518260400151836060015184608001518560a001518660c001518760e00151886101000151879750869650859550849450839350829250995099509950995099509950995099509950509193959799909294969850565b6000603354905090565b600060019054906101000a900460ff168061113c575061113b61169e565b5b8061115357506000809054906101000a900460ff16155b6111a8576040517f08c379a000000000000000000000000000000000000000000000000000000000815260040180806020018281038252602e815260200180611887602e913960400191505060405180910390fd5b60008060019054906101000a900460ff1615905080156111f8576001600060016101000a81548160ff02191690831515021790555060016000806101000a81548160ff0219169083151502179055505b600060338190555080156112215760008060016101000a81548160ff0219169083151502179055505b50565b67016345785d8a00003410156112a2576040517f08c379a000000000000000000000000000000000000000000000000000000000815260040180806020018281038252601a8152602001807f4e6f7420656e6f7567682045746865722070726f76696465642e00000000000081525060200191505060405180910390fd5b6001603360008282540192505081905550600042905060008190506112c56116af565b60405180610120016040528060335481526020018a8152602001898152602001888152602001878152602001868152602001858152602001848152602001838152509050806034600060335481526020019081526020016000206000820151816000015560208201518160010190805190602001906113459291906116fb565b5060408201518160020190805190602001906113629291906116fb565b50606082015181600301908051906020019061137f9291906116fb565b50608082015181600401908051906020019061139c9291906116fb565b5060a08201518160050190805190602001906113b99291906116fb565b5060c08201518160060190805190602001906113d692919061177b565b5060e0820151816007015561010082015181600801559050506033547f878e7d50b625d4ea0bf5863125c246f46285ad14391963133446fc944fb284ba8a8a8a8a8a8a8a6040518080602001806020018060200180602001806020018060200188815260200187810387528e818151815260200191508051906020019080838360005b83811015611474578082015181840152602081019050611459565b50505050905090810190601f1680156114a15780820380516001836020036101000a031916815260200191505b5087810386528d818151815260200191508051906020019080838360005b838110156114da5780820151818401526020810190506114bf565b50505050905090810190601f1680156115075780820380516001836020036101000a031916815260200191505b5087810385528c818151815260200191508051906020019080838360005b83811015611540578082015181840152602081019050611525565b50505050905090810190601f16801561156d5780820380516001836020036101000a031916815260200191505b5087810384528b818151815260200191508051906020019080838360005b838110156115a657808201518184015260208101905061158b565b50505050905090810190601f1680156115d35780820380516001836020036101000a031916815260200191505b5087810383528a818151815260200191508051906020019080838360005b8381101561160c5780820151818401526020810190506115f1565b50505050905090810190601f1680156116395780820380516001836020036101000a031916815260200191505b50878103825289818151815260200191508051906020019060200280838360005b8381101561167557808201518184015260208101905061165a565b505050509050019d505050505050505050505050505060405180910390a2505050505050505050565b600080303b90506000811491505090565b6040518061012001604052806000815260200160608152602001606081526020016060815260200160608152602001606081526020016060815260200160008152602001600081525090565b828054600181600116156101000203166002900490600052602060002090601f016020900481019282601f1061173c57805160ff191683800117855561176a565b8280016001018555821561176a579182015b8281111561176957825182559160200191906001019061174e565b5b509050611777919061182e565b5090565b8280548282559060005260206000209060070160089004810192821561181d5791602002820160005b838211156117eb57835183826101000a81548163ffffffff021916908360030b63ffffffff16021790555092602001926004016020816003010492830192600103026117a4565b801561181b5782816101000a81549063ffffffff02191690556004016020816003010492830192600103026117eb565b505b50905061182a9190611853565b5090565b61185091905b8082111561184c576000816000905550600101611834565b5090565b90565b61188391905b8082111561187f57600081816101000a81549063ffffffff021916905550600101611859565b5090565b9056fe436f6e747261637420696e7374616e63652068617320616c7265616479206265656e20696e697469616c697a6564a165627a7a72305820d29d8d4326523c56390632db4f1da2035846790d7edd7797edb1e91f79cc00e00029",
  "source": "pragma solidity >=0.4.0 <0.7.0;\n\nimport \"zos-lib/contracts/Initializable.sol\";\n\n// Contract for managing land entries.\ncontract RegistryEntities is Initializable {\n\n    // Struct for storing data of land entry.\n    struct RegistryEntity {\n        uint id;\n        string title;\n        string description;\n        string documents_url;\n        string image_url;\n        string priceUSD;\n        int32[] points;\n        uint created_at;\n        uint updated_at;\n    }\n\n    event AfterRegistryEntityCreated(\n        uint indexed _id,\n        string _title,\n        string _description,\n        string _documents_url,\n        string _image_url,\n        string priceUSD,\n        int32[] _points,\n        uint _created_at\n    );\n\n    // Autoincrementer:\n    uint current_id;\n\n    function initialize() public initializer {\n        current_id = 0;\n    }\n\n    // Map for storing land entries (id => land entry data).\n    mapping (uint => RegistryEntity) public _registryEntities;\n\n    // Function for creating and saving land entry to land entries map.\n    function create(string memory title,\n                    string memory description,\n                    string memory documents_url,\n                    string memory image_url,\n                    string memory priceUSD,\n                    int32[] memory points\n    ) public payable {\n        require(\n            msg.value >= 0.1 ether,\n            \"Not enough Ether provided.\"\n        );\n\n        current_id += 1;\n\n        uint created_at = block.timestamp;\n        uint updated_at = created_at;\n\n        RegistryEntity memory registryEntity = RegistryEntity({\n            id: current_id,\n            title: title,\n            description: description,\n            documents_url: documents_url,\n            image_url: image_url,\n            priceUSD: priceUSD,\n            points: points,\n            created_at: created_at,\n            updated_at: updated_at\n        });\n\n        _registryEntities[current_id] = registryEntity;\n\n        emit AfterRegistryEntityCreated(current_id, title, description, documents_url, image_url, priceUSD, points, created_at);\n    }\n\n    // Function for getting land entry data by land entry id.\n    function find(uint id) public view returns (\n        uint,\n        string memory,\n        string memory,\n        string memory,\n        string memory,\n        string memory,\n        int32[] memory,\n        uint,\n        uint\n    ) {\n        RegistryEntity memory registryEntity = _registryEntities[id];\n        return (\n            registryEntity.id,\n            registryEntity.title,\n            registryEntity.description,\n            registryEntity.documents_url,\n            registryEntity.image_url,\n            registryEntity.priceUSD,\n            registryEntity.points,\n            registryEntity.created_at,\n            registryEntity.updated_at\n        );\n    }\n\n    function get_current_id() public view returns (uint) {\n        return current_id;\n    }\n\n}",
  "sourcePath": "/Users/sborod/projects/exyte/tellus/tellus_eth/contracts/RegistryEntities.sol",
  "compiler": {
    "name": "solc",
    "version": "0.5.8+commit.23d335f2.Emscripten.clang"
  },
  "schemaVersion": "3.0.10",
  "updatedAt": "2019-10-25T12:50:49.900Z",
  "devdoc": {
    "methods": {}
  },
  "userdoc": {
    "methods": {}
  }
}